:10000000D8190020D10D0000EF5A0000BD0D0000EE
:10001000BD0D0000BD0D0000BD0D0000BD0D0000B8
:10002000000000000000000000000000350F00008C
:10003000BD0D000000000000CD0E0000BD0D000051
:10004000CD100000CD100000CD100000CD1000003C
:10005000CD100000CD100000CD100000CD1000002C
:10006000CD100000CD100000CD100000CD1000001C
:10007000CD100000CD100000CD100000CD1000000C
:10047C0053B94AB9002908BF00281CBF4FF0FF31FF
:10048C004FF0FF3000F00CB8ADF1080C6DE904CE64
:10049C0000F008F8DDF804E0DDE9022304B0704751
:1004AC00704700BF2DE9F04786468C460846089EEB
:1004BC00154674461946002B40F0C1808542B2FAAD
:1004CC0082F245D94AB1C2F1200300FA02FC9540F0
:1004DC0094402EFA03F343EA0C0C4FEA154EA8B2E3
:1004EC00230CBCFBFEF80EFB18CC08FB00F943EA0E
:1004FC000C43994528D9EB1808F1FF3704D29945DC
:10050C0002D9A8F102072B44A3EB0903A4B2B3FB55
:10051C00FEFC0EFB1C330CFB00F044EA0344A0422F
:10052C0014D92C190CF1FF3304D2A04202D9ACF12E
:10053C0002032C44241A43EA07401EB1D440002382
:10054C0034607360BDE8F0874746DDE76346F1E74A
:10055C0092BB431B01214FEA154EAFB2200CB3FBEB
:10056C00FEFC0EFB1C330CFB07F840EA03439845DA
:10057C0061D9EB180CF1FF3004D2984502D9ACF1DB
:10058C0002002B44A3EB0803A4B2B3FBFEFC0EFB4E
:10059C001C330CFB07F744EA0344A7424DD92C1932
:1005AC000CF1FF3304D2A74202D9ACF102032C4464
:1005BC00E41B43EA0040C0E7C2F12003954094409D
:1005CC0020FA03F12EFA03F34FEA154E9040AFB226
:1005DC000343B1FBFEFC0EFB1C10190C0CFB07F8C3
:1005EC0041EA0041884522D969180CF1FF3004D248
:1005FC00884502D9ACF102002944A1EB08019BB259
:10060C00B1FBFEFC0EFB1C110CFB07F743EA01438C
:10061C009F420ED9EB180CF1FF3104D29F4202D944
:10062C00ACF102012B44DB1B41EA004193E760462D
:10063C00E3E76146F7E76046A4E76346B8E7834221
:10064C0006D916B9002108467CE7C6E900E0F9E7AF
:10065C00B3FA83F78FB9834201D3724508D8BEEB46
:10066C00020460EB030301209C461EB9002169E7DC
:10067C003846FAE7C6E9004CF8E7C7F1200CBB4056
:10068C000EFA07F522FA0CF42EFA0CF1BA401C43C0
:10069C0020FA0CF3B8404FEA144901431FFA84FEC8
:1006AC00B3FBF9F809FB18300B0C08FB0EFA43EA04
:1006BC0000439A4540D9E31808F1FF3004D29A451B
:1006CC0002D9A8F102002344A3EB0A0389B2B3FBBD
:1006DC00F9F809FB183308FB0EFE41EA03418E457D
:1006EC002CD9611808F1FF3304D28E4502D9A8F138
:1006FC000203214443EA0040A1EB0E01A0FB029847
:10070C004145CE46434602D306D14D4504D201386D
:10071C00B9EB020E68EB0403002EA7D0B5EB0E026A
:10072C0061EB030101FA0CFC22FA07F3F9404CEAE5
:10073C000303C6E9003199E74046C5E74346D9E7CC
:10074C00014803F085B800BF9404002002484FF420
:10075C00007183685B691847D069000070B5214847
:10076C0005F07BFC00283BD04FF4B0111E4804F080
:10077C00C8FF002834DB1D4C204605F06EFC78B316
:10078C004FF480311A4804F0BCFF002828DBA56820
:10079C002369AE6926B31B684FF0A07213F4005F97
:1007AC0014BF4FF000734FF080630D212046B0470B
:1007BC00002815DB0F49104805F0A5FC0F49104B1C
:1007CC004B604FF400538B60EB6913B10122204650
:1007DC0098474FF0FF314FF0FF3003F05DFBF8E727
:1007EC00012070BDD069000018730000B0690000D2
:1007FC002073000059070000940400208804002096
:10080C004D070000014B1B68184700BFD0000020AB
:10081C00014B1860704700BFD000002030B585B088
:10082C0004460D4610220021684605F0FBFF02230A
:10083C008DF80230044B2A4621466846019304F099
:10084C0005FD05B030BD00BF1108000080B50546A0
:10085C000E461746984603F071FB034606F04CF81B
:10086C000446DFF81890424649F8003039463046C5
:10087C00A84754F8090000F00DFB00BF0800000069
:10088C002DE9F047058B04462807904611D4022920
:10089C0005F0070540F0CC80204605F040F878B113
:1008AC000138218B042811D8DFE800F0C2106D85C7
:1008BC00950001290CBF45F0100545F02005258356
:1008CC0088F31188BFF36F8FBDE8F08701F0070A3A
:1008DC00AA4500F0A5800027B9463E46A368002B28
:1008EC0000F0BC8041F00801218388F31188BFF32C
:1008FC006F8FA168002900F0BA800D68002900F004
:10090C00B680334652462046D1F80480C047002DAD
:10091C0076D02B6829461D46F0E701F007035A1FD5
:10092C00012A1BD8002221F00701062B276889B267
:10093C00C4E9002209D13B4603E0628B0132628399
:10094C001B68002BF9D141F002012046218304F0F1
:10095C00E6FF00287AD041F0200176E0042B0AD182
:10096C0021F0070189B22046218304F0D8FF10B191
:10097C0041F020012183218B01F0070AAA454FD0B9
:10098C000027B946AAE7236921F0070141F00601C7
:10099C00062DD3F8009021832DD1B9F1000F3FD053
:1009AC0041F00801218388F31188BFF36F8F204633
:1009BC003949C84729E021F00701236941F00401B6
:1009CC0089B2042DD3F804902183E6D000274FF090
:1009DC00040A3E4682E721F00701236941F0050134
:1009EC0089B2052DD3F808902183D6D000274FF07B
:1009FC00050A3E4672E700274FF0060A3E466DE7B1
:100A0C002B4687E7B9F1000FD1D1EFF311882023E2
:100A1C0083F31288BFF36F8F238B23F00803238398
:100A2C00258BEA062ED525F01003238305F0070548
:100A3C006669218B002EBFF670AF00232768C4E9CE
:100A4C00003321F0070141F001012183218B4FF08C
:100A5C00000901F0070AAA457FF440AF002F9CD093
:100A6C0041F00801218388F31188BFF36F8F002FA9
:100A7C00C8D03D68394633465246204604F07BFFC9
:100A8C002F46F4E7AB067FF51BAF25F0200323833D
:100A9C0005F0070500E700BFAF590000014B0360EC
:100AAC00002070472873000008B5044804F02AFFA2
:100ABC00BDE80840024804F025BF00BFA087000035
:100ACC00D587000030BFFFF7FDBF00BF2DE9F04117
:100ADC0005460B4EDFF82C80324606EB0807CC1B84
:100AEC002046094905F091FEA01942460021083C18
:100AFC0005F098FEC5F8804007F10800BDE8F081CC
:100B0C000000000004000000D4720000054B5A697C
:100B1C009B689A421FBF044A536843F0805353604A
:100B2C00704700BF5C06002000ED00E0154B9A6A90
:100B3C0012F0007F9A6A14BF1E201D2012F0807FD5
:100B4C009A6A18BF1F2012F4801F9A6A18BF0220DD
:100B5C0012F4002F9A6A18BF212012F4802F9A6A7F
:100B6C0018BF222012F4003F9A6A18BF232012F4F7
:100B7C00803F9A6A18BF24206FEA02426FEA124241
:100B8C009A62704700ED00E010B5194B0246986A66
:100B9C009C6A10F4805F14BF1720162014F4006FA9
:100BAC009C6A18BF1820A40509D5986B986A000494
:100BBC0004D51AB19A6A22F400429A6219200C4B9D
:100BCC009A6A12F4806F9A6A18BF1A20D2050CD454
:100BDC009B6A13F4005F18BF1C20054A936A43F408
:100BEC007F43936200230B7010BD1B20F5E700BF01
:100BFC0000ED00E010B51C4B0246986A9C6A10F0A0
:100C0C00100F14BF1120102014F0080F9C6A18BF8D
:100C1C001220A40709D5586B986A000604D51AB19E
:100C2C009A6A22F080029A6213200F4B9A6A12F091
:100C3C00010F9A6A18BF142012F0200F9A6A18BF7D
:100C4C001520D40658BF9B6A074B9A6A920642BF7E
:100C5C005A6A22F400525A629A6A42F0FF029A626D
:100C6C0000230B7010BD00BF00ED00E0F0B5474B4A
:100C7C0004465B6800258BB0C3F3080385F3118829
:100C8C00BFF36F8F02F07F40B0F17F4F11D102F0B4
:100C9C000C0008280DD010074CBF0C460125002273
:100CAC00033B8DF80720032B05D8DFE803F0246203
:100CBC00665F2C46F3E700239DF80720CAB902AE05
:100CCC0004F12007324620686168083403C2BC4234
:100CDC001646F7D1099A002D53D0C2F3080121B959
:100CEC006FEA52226FEA42220992184602A904F0D6
:100CFC00EEFE0BB0F0BD254BDA6A9107DBD4DA6A55
:100D0C00002AD8DBDA6A5200D5D55A69A16942F4B7
:100D1C0080725A61BFF34F8FBFF36F8F5A6931F8EE
:100D2C00021C22F480725A61BFF34F8FBFF36F8F96
:100D3C004DF60272914209D09A6AD2B242B10120A8
:100D4C000DF10701FFF756FF0346B5E72368B3E73C
:100D5C009A6A12F47F4F05D001200DF10701FFF7BD
:100D6C0013FFF1E79B6AB3F5803FA4D3FFF7DEFED8
:100D7C00EAE700200DF10701E4E700200DF107017F
:100D8C00EDE722F4FF7222F00102ADE700ED00E086
:100D9C00064B5A6942F010025A615A6942F4806259
:100DAC005A615A6922F008025A61704700ED00E05E
:100DBC00EFF30880EFF3098101B57246FFF756FF98
:100DCC0001BD00BF002080F31488BFF36F8F00209B
:100DDC0080F30A8880F30B880F4880F3088801F0B1
:100DEC003FF900200D490860BFF34F8F00F02CF83D
:100DFC00202080F311880A484FF40061401880F3DA
:100E0C000988EFF314800221084380F31488BFF3A0
:100E1C006F8F00F0EFF80000D819002094ED00E07F
:100E2C00980C0020002318460649D1F89020C2F3F4
:100E3C000722934200DB7047C1F89830C1F8A0003C
:100E4C000133F6E700ED00E010B572B6002484F330
:100E5C001388FFF7E7FF23464FF0FF300C4A03F1EE
:100E6C0020010133102B42F82100F8D100234FF060
:100E7C00FF30074A03F160010133102B42F82100C7
:100E8C00F8D162B6BFF34F8FBFF36F8F10BD00BFA9
:100E9C0000E100E0084B9B6883420BD1EFF3058324
:100EAC0043B1064B5A6842F080525A605A6A22F497
:100EBC0000425A6203F048B85C06002000ED00E0E6
:100ECC0016498A684FF030001044EFF3098C80E823
:100EDC00F01F202080F31288BFF36F8F104F4FF05C
:100EEC0000664A698A603E60D2F880000D4C206032
:100EFC00D2F884000023C2F8843080F3118802F108
:100F0C00300090E8F01F8CF3098802F1000004B562
:100F1C0004F0F2FDBDE80440704700005C060020C0
:100F2C0004ED00E0A40400201EF0040F0CBFEFF34E
:100F3C000880EFF30980816911F8021C0229FFD0A7
:100F4C0001B5724604F0C9FD01BD00BF00B2002816
:100F5C0007DB01234109034A00F01F00834042F8DC
:100F6C002130704700E100E000B200280CDB0122C8
:100F7C000649430900F01F008240203341F823202A
:100F8C00BFF34F8FBFF36F8F704700BF00E100E0DE
:100F9C00054B420953F82220012300F01F0003FAED
:100FAC0000F01040704700BF00E100E000B20028E4
:100FBC0001F10101ACBF00F16040064B4FEA411159
:100FCC00C9B2ABBF00F5614000F00F0080F8001310
:100FDC001954704714ED00E0044B054A23F07F03CD
:100FEC009360BFF34F8FBFF36F8F7047000000000B
:100FFC0000ED00E008B5FFF7EFFF074AD2F88830A4
:10100C0023F47003C2F8883002F056F903F0D0F8DC
:10101C0000F046F802F090F900ED00E042F8203CB8
:10102C00009B0B4942F81C3C019B21F0010142F84A
:10103C00183C029B42F8081C42F8143C4FF0807399
:10104C0042F8043C0023203A0265C0F88430704713
:10105C005908000000B50B4B15469860D0F880205D
:10106C00094B0E461A60036F83F30B882C4686F3EC
:10107C0009880020054B98472046002100220023B8
:10108C00034C20475C060020A40400200D5B0000EC
:10109C00590800001022014B1A61704700ED00E066
:1010AC000023202040F20F1210B5044CE11801333C
:1010BC00934281F80003F9D110BD00BF00E100E0BC
:1010CC0008B5EFF30583064A103B02EBC30152F857
:1010DC00330049688847BDE80840FFF717BD00BFDB
:1010EC00106A00001FB5094C094A23460121094822
:1010FC0000F0FAF800230393074B0121E41A01A82E
:10110C000193029400F0FAF804B010BD00F0022034
:10111C000000002028730000B801002010B50C7AE4
:10112C000B6804F01F0223F01F031A43CB686409F9
:10113C0023F01F03054943EA440343F00103C1F8BC
:10114C009800C1F89C20C1F8A03010BD00ED00E063
:10115C0010B5074BD3F89030C3F30723013B9842EB
:10116C0002D8FFF7DBFF10BD6FF01500FBE700BFE7
:10117C0000ED00E02DE9F04F0F46144606464FF007
:10118C0000084D4D85B0B84580F29280D6F8049099
:10119C00B9F1000F36D0B9F11F0F40F2878019F06A
:1011AC001F0F40F08380D6F800A01AF01F0F7DD1DE
:1011BC00504604F0C8FC834609EB0A00013804F0E1
:1011CC00C2FC834572D11BF1160F6FD05C456DDDEF
:1011DC00C5F898B0D5F89C10C5F898B0D5F8A030E3
:1011EC0021F01F0143F01F0AD6E900321A4499423C
:1011FC0002F1FF391ED1CA4508D131465FFA8BF096
:10120C0004F0AAFC08F101080C36BCE73146C5F81D
:10121C0098B0D5F89C3022F01F0203F01F03134343
:10122C00C5F89C30E0B204F097FC10F1160F3DD0DD
:10123C00441CE7E7C5F898B0D5F8A020013B23F093
:10124C001F0302F01F021343CA453146E0B2C5F832
:10125C00A030E8D004F080FC10F1160F26D0C5F8B1
:10126C0098B0D5F89C209DF808300AF1FF3A62F34B
:10127C0004038DF80830D5F8A0309DF808205B08E1
:10128C0063F347128DF80820D6E90032134400931B
:10129C0023F01F035344A3EB0903013023F01F0376
:1012AC006946C0B20393FFF753FFBEE76FF0150416
:1012BC00204605B0BDE8F08F00ED00E00522044BA0
:1012CC00C3F89420BFF34F8FBFF36F8F704700BFED
:1012DC0000ED00E0BFF35F8F0022024BC3F89420B7
:1012EC00704700BF00ED00E010B5034C2278FFF70B
:1012FC0041FF207010BD00BF900C00202DE9F74F6E
:10130C00294D8A4606464FF00008AB46274FD0457C
:10131C001BDAD6F80490B9F1000F3FD031680846BB
:10132C00019104F010FC0199044609EB010001380D
:10133C0004F009FC84424FF014021D4B08D002FB50
:10134C0008F36FF015024BF8032003B0BDE8F08FE3
:10135C0014F1160F2C60F8D01978A142F5DD02FBC0
:10136C0008B0C7F89840C7F89840D7F89C4000F1EF
:10137C000801007B64F304000871D7F8A0000C7915
:10138C00400860F347140C71D7F89C1021F01F0132
:10139C006960D7F8A01021F01F01296108F101083C
:1013AC0014350C36B3E700BFA804002000ED00E0B4
:1013BC00900C0020F0B54149414CD1F89030256893
:1013CC00C3F307239D4287B075D80020FFF782FF37
:1013DC003C4BC1F8C030854216D13B4C01A825705E
:1013EC00FFF75CFB00250646384FAE4213D10020B8
:1013FC0023783249D1F89020C2F30722934254DB70
:10140C00FFF75CFF00202FE0616801EB0011FFF794
:10141C0085FE0130DFE70199280101EB0513DA683D
:10142C003A40B2F5001F21D0B2F5800F2BD0B2F5A7
:10143C00801F38D15A689B680958013B22F01F0065
:10144C0003440120844623F01F0340EA4C10CDE9ED
:10145C0002218DF8100002A920780593FFF778FE81
:10146C0000281DDA6FF0150007B0F0BD5A689B68B4
:10147C000958013B22F01F0003444FF0020C0120DD
:10148C0023F01F03E1E75A689B680958013B22F0DF
:10149C001F0003444FF0000C062023F01F03D4E779
:1014AC0023780133237001359FE7C1F89830C1F8D8
:1014BC00A00001339EE74FF0FF30D5E700ED00E0D0
:1014CC0034730000AAFF4400900C00200000F0FFD1
:1014DC0008B5024B1B689847002008BDBC040020CF
:1014EC00034B044A1860937843F0020393707047DF
:1014FC00BC040020D400002008B50649064821F0A1
:10150C000701C1F1005202F53C3204F0A1F90020B0
:10151C0008BD00BFDF1D0020C004002008B5234A11
:10152C00234B1A6000F05EF84FF47A612148D0F832
:10153C002436C3F30802C3F309434B4382F480728D
:10154C001D49883201FB02334FF4FA215B00B3FBD7
:10155C00F1F201FB12331949B3F57A3F28BF01327E
:10156C00C1F80429D0F820364FF47A60C3F308028E
:10157C00C3F30943434342F21C5082F4807202F2DB
:10158C00172200FB02334FF47A701B0AB3FBF0F204
:10159C0000FB1233B3F5FA7F4FF0010328BF013281
:1015AC00C1F81C27C1F80036002008BD0020A10797
:1015BC00F000002000C0FF00F82A0080000012504C
:1015CC0048B1054B054A1B68B3FBF2F35843044B77
:1015DC0043F0010318477047F000002040420F0011
:1015EC00007300000122024BC3F80424704700BFB3
:1015FC00002008E0084B70B5C31A0D4607499B1034
:10160C00044659434022064804F0CDFA2B460146C5
:10161C002046BDE870401847E0040020B76DDBB6EB
:10162C0070690000402373B50B4C0093041B0B46F0
:10163C000D460A49A41061430646094A094804F0BC
:10164C00DEFA011E05DA30462B4602B0BDE87040CA
:10165C00184702B070BD00BFE0040020B76DDBB6C8
:10166C00755C00007069000010B5EFF31184202345
:10167C0083F31288BFF36F8F074A136823F00201BC
:10168C00DB07116002D4012004F016FC84F31188EE
:10169C00BFF36F8F10BD00BF3005002070B5002266
:1016AC000121044640F20510FFF780FC0F4800F0C2
:1016BC001DFE0F4B984215D100F028FE26690D49EE
:1016CC00304604F07BF900280BDB012535642469D6
:1016DC00084904F11C0004F071F9002801DB00201A
:1016EC00E56470BD6FF00400FBE700BF995C00007F
:1016FC000000AD0B5C7300001FB500220123CDE987
:10170C0002236B46084ACDF800D0CDF804D004F083
:10171C00A4FA002805DB43F609520023684601F0C1
:10172C006FFF05B05DF804FB935C00000C22104BBE
:10173C00014602FB0033002030B4D3E90E5298630B
:10174C00EFF31180202484F31288BFF36F8F1C6C8D
:10175C0004F0C00444F002041C6480F31188BFF34D
:10176C006F8F1DB12B4630BC0248184730BC7047F8
:10177C00E00400207069000010B4EFF31182202304
:10178C0083F31288BFF36F8F1648016841F002048F
:10179C000460C80707D482F31188BFF36F8F012050
:1017AC0010BC00F0C9BD1049D1F80C14C903F2D516
:1017BC00EFF3118083F31288BFF36F8F0B490B6C1F
:1017CC0003F0C00343F002030B6480F31188BFF3F2
:1017DC006F8F82F31188BFF36F8F002010BCFFF75F
:1017EC00A5BF00BF3005002000E01050E004002031
:1017FC002DE9F041012207463449D1E8EF3FC1E819
:10180C00E02F0028F9D133B9314932484B60CB6015
:10181C008A6004F0E6F87B1E012B28D8012F06D134
:10182C002D4BD3F8503403F00303012B1FD004F0DD
:10183C0096FC0546E8B9294B1B78D3B10422064621
:10184C00254BC3F80823244CDFF89480D4F84C249F
:10185C00D4F84C34D20315D503F00303012B01D07B
:10186C00012F0FD165B386F31188BFF36F8FBDE8DD
:10187C00F081EFF31186202383F31288BFF36F8F6F
:10188C000125E0E7BDB1304604F04EF9D4F8403400
:10189C0013F0FF03DAD1D4F80821002AD6D0C4F80B
:1018AC000831D4F8083120220123C4F84034C8F898
:1018BC00A0212361CAE70021202002F0EDFAE5E720
:1018CC000422054BC3F80423D1E700BFDC0400203D
:1018DC00CC040020FC04002000E01050930C0020ED
:1018EC0000E100E008B5074804F0B7FB38B1064842
:1018FC00FFF7F6FD0448FEF78BFF002008BD6FF0E4
:10190C001200FBE7F0690000191900000A2838B52D
:10191C000446074D04D1AB680D2128465B689847F7
:10192C00AB6803485B68E1B29847204638BD00BFFE
:10193C00F06900002DE9F04340F206354668D00608
:10194C0048BF0320337B02EA050558BFC2F34010A1
:10195C0087B001F01F07B5F5837F144647EA43179C
:10196C008DF8030045D00FD8062D44D007D8B5B15B
:10197C00022D14D06FF0150007B0BDE8F083B5F55B
:10198C00807FF7D101250AE040F20222954234D043
:10199C00B5F5407F33D0B5F5007FEBD1042522039C
:1019AC002FD5012372688B405360326982BB5F2F45
:1019BC0007F01F034FEA571177D83E4A52F82120FF
:1019CC0084F4803102EB8302D2F88030C1F3004101
:1019DC00C4F3404423F4706344EA410423F00F033E
:1019EC001C4344EA800444EA0524C2F880400020E9
:1019FC00C2E70925D3E70825D1E70625CFE705255A
:101A0C00CDE7630341BF012372688B409360CCE741
:101A1C001036394630460DF1020201F0BFF814F4CD
:101A2C00403F80460CD13946304604F00AFB224B2D
:101A3C009845DCD130469DF8021001F01BF9D6E731
:101A4C004FF0000901AB3946304603AACDE9043901
:101A5C00CDE90199CDF80C9000F012FF164B98428D
:101A6C0088D114F4003315D09DF8033084F48034FD
:101A7C00C4F300448DF80E3039464B46304603AA69
:101A8C008DF80C508DF80D4000F0E6FF0A4B984293
:101A9C00CDD06FE7CDE9043339460DF10303304661
:101AAC0003AA039300F0ECFEF0E7203352F8233046
:101ABC00FFDE00BF787300000000AD0B4209022A64
:101ACC00034670B503D0012A18D0CAB170BD0E4EB2
:101ADC00326951680029F9D0012503F01F030C6805
:101AEC009D400029F2D08A682A4002D030464B68CB
:101AFC0098473CB1236821461C46F2E7034EE7E7C2
:101B0C00034EE5E72346F6E7D0690000B069000014
:101B1C009069000038B545682B69E3B1103528464B
:101B2C0001F09AF80446B0B90146284601F054F881
:101B3C000B4B984211D1224628460A4901F020F855
:101B4C0022460121DB20FFF731FA2246012140F227
:101B5C000D10FFF72BFA002038BD6FF00400FBE7E7
:101B6C000000AD0BC91A0000F0B51646426801F032
:101B7C001F04107B87B044EA40141069002871D010
:101B8C00B6F5001F02F1100506D12146284604F0D7
:101B9C005AFA002007B0F0BD0027B6F5800F01A857
:101BAC00019747603BD1B3F1007F14BF0523042399
:101BBC008DF804300023CDE90403039393680DF1F1
:101BCC00030723FA01F111F001013DD1B6F1A07F19
:101BDC003AD104F01F035F2C4FEA541003F1200399
:101BEC0046D8254A52F8202052F82330DB072BD454
:101BFC003A462146284600F0D1FF204B984219D096
:101C0C0002972146284603AA00F03AFE1C4B984244
:101C1C002BD101222146284601F03CF8B9E7B3F15B
:101C2C00C06F05D0B3F1007F14BF01230223BFE7BF
:101C3C000323BDE73946284601F024F8104B98429F
:101C4C00DED06FF00B00A5E73A462146284600F09F
:101C5C00A5FF0B4B9842D4D128469DF8031001F0F8
:101C6C0009F8CEE76FF0850094E76FF0150091E767
:101C7C0051F82330FFDE00BF787300000400AD0B79
:101C8C000000AD0B036803F01F025F2B02604FEAEC
:101C9C0053129ABF024B53F822000020704700BF2A
:101CAC00CC7300002DE9F04F1546074640F2FF19A2
:101CBC00DFF864A1DFF864B185B000EB8101B942B3
:101CCC0003D1002005B0BDE8F08F3B68C3F3C322FD
:101CDC00082AC3F3080400F29B804C4508BF4FF060
:101CEC00FF34B3F1D05F1AF802804FEA136210D2BE
:101CFC00192A10D8DFE802F012181F5A22285A0F9E
:101D0C000F0F0F0F0F0F0F0F0F0F0F0F0F0F5D7028
:101D1C007376382A69D06FF08500D3E7C5F804468E
:101D2C00631C4FD10437CAE7C5F80C46621CF9D0C6
:101D3C000026324616E0C5F81046F1E7661CC5F8D9
:101D4C000046EFD0002604E0601CC5F80446E9D03C
:101D5C00012603A80394FFF795FF0122039B02FAC7
:101D6C0003F383603B68039403F40040002818BF1E
:101D7C00002203A818BF012601930092FFF782FFEF
:101D8C00039C019B00EB8400D0F88040C3F3412CF2
:101D9C00009A4FEA082343EA8C03134304EA0B042A
:101DAC00234343EA4603C0F88030BBE7C5F8084636
:101DBC00BCE7C5F86045621C3B68B3D0C3F3004375
:101DCC00002BC5D0012603A80394FFF75BFF039BF0
:101DDC0006FA03F34360ACE7C5F86445EBE7C5F8D6
:101DEC006845E8E7C5F86C45E5E703A80394FFF7F9
:101DFC0049FF039B00EB8300D0F8803023F0E043D5
:101E0C0043F08043C0F88030631C8BD0012690E7F0
:101E1C006FF0150056E700BF41880000F0F0FCFFA2
:101E2C002DE9F04104460D46476804F098F9A0B935
:101E3C00274B1B788BB14FF02008642663681B6816
:101E4C00D3F830318BBB012004F034F8013EF5D1CE
:101E5C000021202002F020F8EFE72021EFF311837E
:101E6C001A4681F31288BFF36F8F60680068D0F850
:101E7C00300120B983F31188BFF36F8FEEE77B6AD3
:101E8C0000201D706368796A1B68C3F83C17012138
:101E9C00C3F84017C3F83001D3F83001196582F349
:101EAC001188BFF36F8FBDE8F081EFF311831A46F1
:101EBC0088F31288BFF36F8F61680968D1F830110D
:101ECC000029DCD183F31188BFF36F8FC0E700BF0B
:101EDC00930C002070B514461D4603F0D2FFA042AF
:101EEC00A94113D30A4AD2E90061A41B24F01F03B1
:101EFC0065EB01009B1941EB0001C2E9003164095B
:101F0C0044EAC060BDE8704002F02EBA70BD00BF5C
:101F1C00C001002010B500220121E420FFF746F893
:101F2C00174A0020D2F8183723F44033C2F8183778
:101F3C0000F08EFF134B0446984208D10120124941
:101F4C0001F016F8A04205D0104B984214D04FF077
:101F5C00FF3010BD03F095FF67220D4B20F01F00E2
:101F6C00C3E900010B4BC3E900010B4B02201A60C3
:101F7C00FFF73EFC0020ECE76FF00B00E9E700BF39
:101F8C0000200E500000AD0BEC0000200200AD0B49
:101F9C00C0010020B80100206005002008B503F046
:101FAC0070FF054AD2E90032C01A61EB0201400908
:101FBC0040EAC16008BD00BFC001002037B5431C1A
:101FCC000CBF6FF0004420EAE07403F05AFF0D4B95
:101FDC00D3E90025801A61EB05032021C4FB010322
:101FEC00402873F100042CBF20F01F01002352186D
:101FFC004FF0010145EB03030091034801F01CF87D
:10200C0003B030BDC0010020E4000020064BD3F823
:10201C0040231C2A05D1D3F84403431E584258418F
:10202C0070470020704700BF00C0FF0003689A078C
:10203C000CD50368DB070DD50922074BC3F80C251B
:10204C000F22C3F8042501221A60FEE7034B03603C
:10205C00EF3B0360704700BF00801050F000FA5057
:10206C0008B501233E4A3F48C2F800383E4AD2F830
:10207C0040231C2A04BF3D4AC2F80C34FFF7D6FF9C
:10208C000830FFF7D3FF0830FFF7D0FF0830FFF719
:10209C00CDFF00F5F470FFF7C9FF354AD2F88C304C
:1020AC0043F44063C2F88C300022D30003F57F0365
:1020BC0003F54043D3F8001401310AD0D3F80014CF
:1020CC0039B1D3F800140132D3F80434402A0B6030
:1020DC00EBD1234BD3F84024002A3DD0FFF796FFD9
:1020EC0048B1214BD3F83423224B9A429EBF1C4B50
:1020FC00214AC3F84026FFF789FF18B11F4B204A2D
:10210C00C3F8AC27FFF782FF48B13422144BC3F855
:10211C002426D3F83C2622F40022C3F83C26124B8A
:10212C00D3F840331C2B08D1164BD3F80026D2071A
:10213C0044BF6FF00102C3F800260323124A0C4976
:10214C00C2F81835D1F88C3043F44063C1F88C30A8
:10215C000023C2F8A03508BDC822C3F84024BDE74F
:10216C000000125000C50D5000C0FF00003005509B
:10217C0000ED00E0001D0A1840E0A91E00A0085068
:10218C0078000A0400E0105000B0045030B5046828
:10219C00ACB1B4FA84F30122C3F11F03DBB29A4051
:1021AC0024EA0202D0E8EF5FA54204D1C0E8EC2F8C
:1021BC00BCF1000FF6D1EAD102480B7030BD0248D9
:1021CC00FCE700BF0000AD0B0200AD0B10B50368BF
:1021DC00CB40DB0710D401238B40026843EA020199
:1021EC00D0E8EF4F944204D1C0E8EC1FBCF1000FD3
:1021FC00F6D1F2D1014810BD0148FCE70000AD0B4F
:10220C000400AD0BF7B5054648B3012825D10422CF
:10221C004FF48073712032490024C1F80803012067
:10222C0002F1A04203F1A04303F5871302F58712D4
:10223C0010601C601B682B4BD3F840331C2B13D045
:10224C00854201D10DF10704002342F21076244F90
:10225C008DF8073065B1012D2ED003B0F0BD1422DE
:10226C004FF484730420D6E7012DEDD1CD60E9E75E
:10227C00D7F84C3403F480336CB9002BEDD001202B
:10228C0003F018FE013EF3D1E7E7012003F012FE44
:10229C00013EDFD1E1E7D7F84C2402F003022270B3
:1022AC00002BDAD09DF80730002BEED0012DD4D1C5
:1022BC0000220D4B5A71D0E7D7F80C3403F480335D
:1022CC003CB9002BF4D0012003F0F4FD013EF3D116
:1022DC00C3E7002B0CBF012300232370E2D1E7E7F7
:1022EC0000E0105000C0FF0064050020044B1A7978
:1022FC0022B9012218601A710248704702487047CF
:10230C00640500200000AD0B0C00AD0B08B5084BAC
:10231C001B6843B140F20510FEF73AFE18B940F2C3
:10232C000510FEF713FE0022024BC3F8402408BD33
:10233C006405002000E0105010B510B1012845D004
:10234C0010BD324BD3F84C14D3F84C24C80324D50D
:10235C0002F00303012B04D013B10020FFF752FF4E
:10236C0000232A4A0420C2F8403410224FF484730C
:10237C00002103F1A04303F5871319601C680124A5
:10238C0002F1A04202F587121460214A1268002A59
:10239C0036D01E4BC3F80403D2E7D3F84824D10738
:1023AC00DED5D3F850249207D7D4194A12681AB143
:1023BC000422C3F80423C3E7D3F80821002AFBD076
:1023CC000022C3F80821D3F80831B9E700220F4BDB
:1023DC00C3F81021D3F81011C3F81821D3F8181131
:1023EC00C3F81421D3F814210A4AD2F840231C2A2A
:1023FC0004D000224FF480737120B9E79860F8E79D
:10240C001A68002AFCD019601B6899E700E010508C
:10241C006405002000C0FF0070B500251E4C1F4E47
:10242C00D4F80C3303B970BDB3FA83F3C3F11F03B3
:10243C009A0002F5807292B202F1A04202F5871264
:10244C00156012680122D8B202FA03F3DBB2102B2A
:10245C00C4F8083311D0402B1BD0042B16D1D4F860
:10246C004C14D4F84C14890710D1C4F84024C4F887
:10247C0004332261D4F80C33D4E702237371C4F80B
:10248C001451D4F814312023C4F80433336898471A
:10249C00F0E77571FAE700BF00E01050640500200A
:1024AC00036803F01F025F2B02604FEA53129ABFBE
:1024BC00024B53F822000020704700BF2C74000020
:1024CC00034A4309D35C00F01F001844C0B27047A4
:1024DC005588000070B505460846FFF7F1FF3C2112
:1024EC002A79184B01FB0202083233F81200C1059D
:1024FC0026D578240026C0F3432120F4F85023F885
:10250C0012002A7904FB02340E3434F8020F10F452
:10251C00807F03D0C0F34320814211D00136232E9B
:10252C00F3D10020C2EB02120A4443F832007820A7
:10253C002A79BDE8704000FB02306030FFF746BEE0
:10254C0070BD00BF6C050020F0B50646002487B0B6
:10255C00114F019117F8012B06AB03EBD20313F8C3
:10256C00143C02F00702D34013F0010306D10134EE
:10257C00032CEFD10023184607B0F0BD074A03AD7A
:10258C0007CA85E8070055F824100A6A46F8242083
:10259C000A62002AEBD0EEE765880000E0720000CA
:1025AC0010B504460846FFF78BFF3C2303FB0400E1
:1025BC00024B083033F81000400B10BD6C050020A6
:1025CC0010B504460846FFF77BFF3C2303FB0400D1
:1025DC00034B083033F81000C0F3400010BD00BFAF
:1025EC006C05002010B504460846FFF769FF3C2334
:1025FC0003FB0400034B083033F81000C0F3401009
:10260C0010BD00BF6C05002078232DE9F04F6F4CF6
:10261C000E460C1BB4FBF3F4D0F81413DFF8B0B176
:10262C00C9B28BB041F400315BF83420009003F058
:10263C00BCFC8103054638D50023E7000BEBC40432
:10264C00CDE907330993636807A819460193FFF78F
:10265C007BFF3B1D03934FF0000A5E4B0DF11C09F1
:10266C000293029A12F8013B0292039A02EBD302F4
:10267C001BF8022003F0070322FA03F3DA071AD43B
:10268C000AF1010ABAF1030F09F10409E9D14FF477
:10269C0000310022009803F088FC019907A8FFF78D
:1026AC0053FF0028D7D125F400350124002D76D115
:1026BC000BB0BDE8F08F484B53440493D9F800108D
:1026CC000029DDD091FAA1F1B1FA81F1049B1C78BB
:1026DC0041EA44142046FFF7F3FE083036F8108028
:1026EC00C8084FEA98030593012319F8002001F05C
:1026FC00070103FA01F122EA010209F8002006A8F9
:10270C000694FFF7CDFE069A059B203250F8222046
:10271C00C8F382075B07B846C2F3014223D53046A3
:10272C00D7B22146424603F021FC06A80694FFF7D7
:10273C00B7FE069B203350F82330C3F301439F426E
:10274C0007D10021204603F002FC3946204603F055
:10275C00FEFB06A80694FFF7A3FE0122069B02FAD5
:10276C0003F30362AAE7022A0DD10321204603F0EA
:10277C00EEFB07F00503012BEBD142462146304618
:10278C0003F0F4FBE5E702212046059203F0DFFBA2
:10279C00032FF2D0059A032ADBD1022FECE795FA2E
:1027AC00A5F3B3FA83F3009904FA03F225EA0205C0
:1027BC0003F5A27251F8222006EB43033046B3F81E
:1027CC006410C2F3014203F0D1FB6FE76C050020EB
:1027DC003874000065880000658800002DE9F74317
:1027EC0005460846FFF76CFE3C222B79204F02FB76
:1027FC000303083337F813300E46DB07044635D590
:10280C00284603F0F9FB95F8049031464846FFF74B
:10281C00E9FE60B14846FFF7C3FE0022D5F8008000
:10282C0000B208EB8003C3F81025C3F81025284626
:10283C003146FFF74FFE3C222B7901A802FB0344E3
:10284C000023083427F814300196FFF729FE019B6A
:10285C0000EB8300D0F88020064B134043F00203BA
:10286C00C0F88030044803B0BDE8F0830348FAE7B1
:10287C006C050020F0F0FCFF0000AD0B0400AD0B6C
:10288C002DE9F04F9046044685B00846FFF718FE38
:10289C00D8F800900F4606462579B9F1000F23D0E1
:1028AC002846FFF78DFE18B12846FFF79BFE58BB54
:1028BC0000230DF10F02CDE900338DF80E308DF8A9
:1028CC000F300DF10E014B46384603F0F7FA3C235E
:1028DC0003FB05635D49083331F8132022F0020233
:1028EC0042F0010221F81320D8F80430002B3FD01D
:1028FC003946207993F80090D3F804A0FFF760FED6
:10290C0020B1BAF1000F26D0514835E03C226A4381
:10291C00DFF838E102EB060C0CF1080C3EF81C3029
:10292C0023F02003DB04DB0C2EF81C30BAF1000F73
:10293C0011D0B9F1030FE7D8D8F804102068496812
:10294C0091F800A000EB8A00B9F1000F17D1C0F884
:10295C001095C0F810953C2303FB05653B4A0835E0
:10296C0032F8153023F01C0343EA890322F81530A2
:10297C00D8F8083063BB374805B0BDE8F08FD0F805
:10298C0010B552442BF0030BC0F810B5206843EA85
:10299C004A3300EB8A01D1F810050EEB420220F409
:1029AC00473020F47C70C1F8100541F6F070D1F876
:1029BC0010B500EA071040EA094040EA0B0043F06A
:1029CC002003C1F81005A2F864702EF81C30C2E781
:1029DC003946D3E900852046FFF77CFDB8F1000F9E
:1029EC00C9D078232079194F4343FA18FB589845DE
:1029FC0004D153689D4201D100220CE0782303FBE3
:102A0C0000700DF10F016030FFF7C0FB114B9842C5
:102A1C00B2D19DF80F203C212379C3EB031313444F
:102A2C0047F833802379C3EB0313134407EBC30339
:102A3C005D60237901FB0363083337F8131041EA17
:102A4C00422242F4807227F8132094E76C05002090
:102A5C000400AD0B0000AD0B2DE9FF470546084601
:102A6C0017461E46FFF72CFD8946044687B395F89A
:102A7C0004804046FFF7A4FD18B94046FFF7B2FDAD
:102A8C0068BB3C2303FB0848DFF8E4A008F1080806
:102A9C003AF8183013F01C0F02D07B78012B1ED0A3
:102AAC0001238DF80F3000237A1CCDE900734846C2
:102ABC00BB1C0DF10F0103F001FA3C222B7902FB38
:102ACC00034308333AF8132042F003022AF8132088
:102ADC00002E4BD049462879FFF772FD18B92548CE
:102AEC0004B0BDE8F08700214FF03C0C30782B6827
:102AFC00820003EB8003C3F81015C3F810152B7973
:102B0C001B490CFB0343083331F8137027F460475F
:102B1C0027F0200721F8137077783FB32B68B6782D
:102B2C001A44D2F810E5144B3F040EEA0303C2F822
:102B3C00103541F6F07307F4403703EA09133605F4
:102B4C00D2F810E53B4306F48016334343EA0E03F8
:102B5C00C2F810352B790CFB0344083431F81430CF
:102B6C0043EA403343F0200321F814300348B7E71D
:102B7C006C0500200400AD0B0FE0ECFF0000AD0B6A
:102B8C0030B578250479044B05FB0434A160017938
:102B9C0005FB0133DA6030BD6C05002070B5067999
:102BAC0014463046FFF71EFD68B10846FFF788FC57
:102BBC003C2303FB0600054B083033F81030044867
:102BCC005B0B237070BD0348FCE700BF6C05002055
:102BDC000000AD0B0400AD0BF8B506460779782064
:102BEC00194D00FB075393F8744054BB184646220A
:102BFC002146103003F016FE3179144A336852F82E
:102C0C00316021468E4212D10022C3F30830C3F842
:102C1C0044210130D3F84421FEF798F9782303FBC3
:102C2C00075501230A4885F874302B66F8BDCAB2E3
:102C3C00920002F58070442A04BF1C501A580131CE
:102C4C00E0E70448F2E700BF6C0500203874000090
:102C5C000000AD0B0C00AD0B78210279044B01FB8D
:102C6C00023393F87400003818BF0120704700BF7E
:102C7C006C0500200079024B03EB8000FFF7A6BA2D
:102C8C00F40000200079024B03EB8000FFF77EBAC2
:102C9C00F40000202DE9F74390F8049004464846D0
:102CAC001746FFF79FFC0D46266800B34846FFF712
:102CBC0087FC8046D8B94846FFF772FC05B2AD00D8
:102CCC0005F5807246F802802168B2582944D1F883
:102CDC00102542F00102C1F810252FB10122216804
:102CEC0002FA00F3C1F8143303B0BDE8F083D6F850
:102CFC00143328469B035CBF4FF40033C6F81433DF
:102D0C00FFF7DEFB3C22237902FB03000E4B08305D
:102D1C0033F81030C3F38203042B11D0052B11D0E0
:102D2C0001A80195FFF7BCFB019BC168D94001F0DC
:102D3C0001010231284603B0BDE8F04303F007B9A6
:102D4C000321F7E70221F5E76C0500200149024851
:102D5C00FFF75ABC6C05002000A00D500149024839
:102D6C00FFF752BCE405002000C0105010B5002441
:102D7C00037A0D49CA181B0103F1A04303F5622322
:102D8C0092F85420C3F82C450C2303FB021304685F
:102D9C00DC6042681A610122007A18758B688240E7
:102DAC0013438B6010BD00BF40000020074B027A1C
:102DBC00D3F8101521F001010A43C3F8102502685D
:102DCC00C3F8A4264268C3F8AC26704700200E5006
:102DDC00012303FA00F010F0670F0AD0064B5B6872
:102DEC00DB4303F067030342044B054818BF184646
:102DFC0070470448704700BF400000200000AD0B36
:102E0C000400AD0B0800AD0B2DE9F048EFF3118178
:102E1C00202383F31288BFF36F8F4FF0FF356FF0D1
:102E2C004044094ED6E900BC5D4574EB0C07F9D360
:102E3C00CCF31303C0E900B381F31188BFF36F8F98
:102E4C000248BDE8F08800BF40270E500000AD0BD3
:102E5C00F0B53C4D85B02C78002C6FD13A4A01ABC3
:102E6C0007CA83E8070039491846D1F8102522F023
:102E7C000202C1F81025FFF799FF0723672202F021
:102E8C0001012144013BCCB24FEA5202F7D1052C8F
:102E9C0056D119464FF0010C2A4E00246720CFB2B0
:102EAC0004E00CFA02F220EA0200013490FAA0F2DB
:102EBC005FFA84FEBE45B2FA82F2F2D3013132756A
:102ECC0005292A4482F8547006F10C06E5D101213B
:102EDC0000241F489A0801FA02F212F0670F18BF7B
:102EEC001C500433302BF5D1E420FEF72FF8174B90
:102EFC001849D3F8102503F5C07322F00202C3F869
:102F0C00902340F6FF72C3F8A82100221A60A3F5A3
:102F1C00807004338B420260F8D101240B4B0E4AB3
:102F2C001C660E4B5D201B68B3FBF2F358430C4B35
:102F3C00234398470B482C7005B0F0BD0A48FBE7BB
:102F4C000A48F9E740000020EC72000000200E5007
:102F5C0000210E50B0210E5040420F00F000002016
:102F6C00107300000000AD0B0C00AD0B0100AD0B9D
:102F7C0073B52A4C054663680E4603F0010304F151
:102F8C00140101A80193FFF701F9254B98423DD19B
:102F9C0000233370636823F001036360A36843F07C
:102FAC000103A3601F4BD3F81025960732D4D3F836
:102FBC00102542F00202C3F81025C5B1D3F84827FA
:102FCC0012F0010202BFD3F8481741F00101C3F817
:102FDC004817144BD3F84017D3F844174C00F9D4C6
:102FEC002AB9D3F8482722F00102C3F848270E4B20
:102FFC000E4A1B68B3FBF2F30A4A03EB43135BB1B3
:10300C00D2F84017D2F84417490001D402B070BD71
:10301C00013BF4E70648F9E70648F7E740000020D3
:10302C000000AD0B00200E50F000002040420F00BD
:10303C000C00AD0B0700AD0B2DE9F0410446007AF6
:10304C001D46FFF7C5FE1E4B9046984206469DF85E
:10305C00187031D12046FFF789FEEFF31180202341
:10306C0083F31288BFF36F8F227A164B92001344AE
:10307C0000221A60217AC5F31305090101F1A04160
:10308C0001F56221C1F82085C1F8245580F311881F
:10309C00BFF36F8F87B10123227A0B4903FA02F237
:1030AC00D1E8EF5F1543C1E8E05F0028F8D1227A40
:1030BC009340064AC2F824333046BDE8F08100BF85
:1030CC000000AD0B00210E50C800002000200E5057
:1030DC00F7B5284B284CD3F82C6304F188070EB9AC
:1030EC0003B0F0BD96FAA6F00123B0FA80F083404D
:1030FC00DA43224926EA0306231893F85450830036
:10310C0019440C2303FB0543DB6873B3D7E8EF3F8B
:10311C0003EA020CC7E8EECFBEF1000FF6D1C340B4
:10312C00DB0719D5020102F1A04202F56222D2F8A6
:10313C002435D2F82025D1F800C0BCF1000FCED038
:10314C004FF0000CC1F800C00C2101FB05452969AA
:10315C000091E9688847C2E705F10C0304EBC30C46
:10316C0054F83320DCF80430E5E70A68002AB6D0BE
:10317C000B60B4E700200E504000002000210E50E0
:10318C00044B40EA0120C3F80005D3F80024D20711
:10319C00FBD5704700B0045038B5EFF311852023F0
:1031AC0083F31288BFF36F8F064B9C6802F068FFA5
:1031BC0085F31188BFF36F8F2046BDE83840FDF7CB
:1031CC0069BE00BF5C06002038B50A4B53F820409E
:1031DC00013053F82050A54200D838BD606830B19A
:1031EC00037FDB0701D402F04EFF0834F3E72368BA
:1031FC009847FAE748740000012270B5294B032068
:10320C0086B01A70FFF7E0FFFDF74EFC0420FFF7C5
:10321C00DBFF254C254D2646AE4204F1300410D37D
:10322C0000F06AFD204C224EAC4226D300F078FD13
:10323C00FDF794FA1F4A137B23F00103137306B0B6
:10324C0070BD54F80C3C059354F8103C049354F89E
:10325C00143C039354F8183C029354F81C3C01930F
:10326C0054F8203C009354E90A2354E90C0100F073
:10327C0035FB54F8303C5E65CDE7D4E90A23B3F155
:10328C00FF3F08BFB2F1FF3F05D052EA03012068AF
:10329C0003D100F02FFE3034C6E73146183000F071
:1032AC00D1FFF8E7930C00208872000088720000B0
:1032BC00556200005802002008B50348034A00215B
:1032CC00121A02F0F7FE08BDB8010020980C00207D
:1032DC00902370B5134E012203FB0066002386B0C9
:1032EC00CDE904230F220193CDE9023214234FF4CC
:1032FC00A0720D4D0D4903FB0055044602FB001155
:10330C000B4B3046009500F0E9FA737B2C7423F0DC
:10331C0004037373074B013403EBC423EE606B603F
:10332C0006B070BDC80100205C0600209814002077
:10333C00C9600000980C0020BFB50020FFF744FFC7
:10334C00294B03F5006282F3088883F30A88002472
:10335C00E023264D264F85F82230EC772C766C76C0
:10336C00AC7685F820406B6A43F4E0236B6285F8F9
:10337C002340FDF70DFDFDF78DFE4FF0FF33AB62E3
:10338C00EB62FEF717F8FDF7ADFE1A4800F012FBE2
:10339C0002F062FE0120FFF717FF0220164DFFF727
:1033AC0013FF00F0F1FC154B15495D61154B4FF403
:1033BC008062059301232846CDE90343CDE90144FE
:1033CC003B46009400F08AFA06466A7B284622F0B7
:1033DC0004026A7302F006FF2046FFF779FF3A46B3
:1033EC0031462846FDF736FE980C002000ED00E033
:1033FC0005320000E8020020580200205C06002084
:10340C00D8150020688800002DE9F34104461746C2
:10341C001E46EFF31188202383F31288BFF36F8FBE
:10342C00C368334A7BB180689168884219D057EAE7
:10343C00060318D188F31188BFF36F8F6FF00F005C
:10344C0002B0BDE8F081916891F90E100133E36090
:10345C0093682161A36088F31188BFF36F8F0020FC
:10346C00EEE72169F2E791F90E1090F90E306FF04A
:10347C007E029942A8BF19469142B8BF11468B42B1
:10348C002DDD02F026FE054622464146CDE90076AA
:10349C00184800F077FB0028E1D0EFF311862023C9
:1034AC0083F31288BFF36F8FA068D0B123682169B2
:1034BC009C420AD04BB193F90E309942A8BF1946E1
:1034CC006FF07E039942B8BF194602F002FE40B17C
:1034DC003146084800F0EAFB6FF00A00B0E700251F
:1034EC00D2E7002DF4D186F31188BFF36F8FF3E789
:1034FC005C060020940C0020F8B583680546002B70
:10350C0040D0234A926893423FD1C368012B03D920
:10351C00013BC3600020F8BDEFF31187202383F338
:10352C001288BFF36F8F0169806802F0D2FD2C689E
:10353C00A54207D10023C5E9023387F31188BFF3F5
:10354C006F8FE7E7002CF5D0D4E90032002613602A
:10355C005A60637BC4E9006623F002036373A660C0
:10356C0004F1180002F0D0FEAC6094F90E30204645
:10357C002B61C4F8886002F035FE3946054800F02E
:10358C0095FBC7E76FF01500C5E74FF0FF30C2E7BA
:10359C005C060020940C002070B5EFF311862023FC
:1035AC0083F31288BFF36F8F0468A0421BD0D4B191
:1035BC00D4E90032002513605A60637BC4E90055DE
:1035CC0023F002036373A56004F1180002F09CFE63
:1035DC002046C4F8885002F005FE3146BDE8704024
:1035EC00064800F063BBD0E902329A4218BF01339F
:1035FC00836086F31188BFF36F8F70BD940C00202D
:10360C0013B5EFF31181202484F31288BFF36F8F6D
:10361C00846844B1013C846081F31188BFF36F8FDF
:10362C00002002B010BD52EA030406D181F31188C8
:10363C00BFF36F8F6FF00F00F3E7CDE90023024665
:10364C00014800F09FFAECE7940C00202DE9FF41B3
:10365C00044620274E4EEFF3118887F31288BFF3F0
:10366C006F8FD4F89450F5B9022104F1AC0002F03C
:10367C0038FD002868D004F1A40500220121284659
:10368C0002F0E6FD0028F8D100234FF0FF32029340
:10369C004FF0FF334146CDE900233E4804F19C0234
:1036AC0000F0EEFCD7E7D4F898202B689542C4F8CC
:1036BC00943008BFC4F89830D4F8AC3043F002030F
:1036CC00C4F8AC30EB6823F0040343F00103EB6067
:1036DC006B6888F31188BFF36F8F28469847EFF318
:1036EC00118887F31288BFF36F8FEB68D80623F02D
:1036FC00010236D4EA60EB689A0716D5306823F0DD
:10370C000203EB6088B10021036870B142689542F6
:10371C0035D1036869BB72683360824200D1736033
:10372C00002340F8083BFFF737FFD4F8AC3023F008
:10373C000203C4F8AC3088F31188BFF36F8FDB053C
:10374C0089D400F029FB86E7D4F8AC30D9069BD598
:10375C00C4F8AC0088F31188BFF36F8F04B0BDE8D8
:10376C00F08123F01103EB6005F11000FFF714FF5B
:10377C00C1E70B607368834208BF7160D0E723B167
:10378C001A68014618461346BFE71A46F9E700BF08
:10379C007C060020940C0020F8B5C36804469A07F8
:1037AC000F46C3F340062ED45B071CD40B680BB931
:1037BC0083680B60E368DD0742BFA36802263B60A9
:1037CC003D6858BF0126002D3CD0204B9A68D5F897
:1037DC0090309A420AD0D5F8AC30D807C3F38002A7
:1037EC0014D46FF0120600233B6025E002F0B7FC06
:1037FC00D5F8AC300028F0D1D907C3F3C002F0D50E
:10380C0052B15B0708D46FF00F06ECE7002AFAD12F
:10381C00C3F3C003002BF6D100232360D5F89830F6
:10382C0063B9C5E92544284602F066FCE36843F019
:10383C000403E3603B68A3603046F8BD1C60C5F828
:10384C009840F0E76FF01506CDE700BF5C0600204E
:10385C000146014802F073BC98030020F0B5044601
:10386C00002089B0C4E925000E9D04F19C00C4E938
:10387C00270004F1A400C4E9290055B328790028D5
:10388C0040F2011008BF0120C4F8AC0000204FF03A
:10389C00FF364FF0FF37CDE90330CDE90100CDE91C
:1038AC00066720460C4B009400F058F855B1296877
:1038BC0011B1204602F059FC6B791BB1237B43F00C
:1038CC0001032373204600F015FBC4F8904009B0A7
:1038DC00F0BD0120D8E700BF593600002DE9F043B8
:1038EC00984685B000F15803C0E91633109B0025AB
:1038FC0003730423073222F0070643730F9B01EB7B
:10390C0006090F4683734946C0E906558560C573A1
:10391C000446FDF7DBF80E9B073020F00700A0678C
:10392C00C4E91C7602930D9BA9EB000901930C9B37
:10393C004A460093394643462046FDF76FFB064B3B
:10394C0065659B6884F86C5003B1DB6F4846E36790
:10395C0005B0BDE8F08300BF5C060020F0B5002583
:10396C0087B00595109DDDE9127604950F9D0446F0
:10397C0003950E9D02950D9D01950C9D0095FFF7ED
:10398C00ADFFB6F1FF3F08BFB7F1FF3F05D056EAD8
:10399C00070305D1204600F0ADFA204607B0F0BD74
:1039AC003A46334604F11800014900F04BFCF4E7A9
:1039BC005562000040F2011383810023C0E91C33DF
:1039CC00C367014B986070475C0600206FF00A01DA
:1039DC00094A9368C3F888100849C3F884004B68F7
:1039EC0043F080534B60002383F31188BFF36F8F38
:1039FC009368D3F8880070475C06002000ED00E067
:103A0C0070B590F90D20437B002A36DBD90634D1F2
:103A1C001B4C63F07F032246437352F8183FE16955
:103A2C00934207D1C0E900210860E06111E099429E
:103A3C00F8D01B68002BF5D090F90E5093F90E605E
:103A4C00B542F4D0AE42F2DD5968C0E900310860ED
:103A5C005860A569954200D005B9E568A3685A7B02
:103A6C00D20604D1DA897F2A01D9AA6932B1AB42D4
:103A7C0002D0284600F044FB656170BD6361FCE731
:103A8C005C06002038B590F90D200146002A437BD6
:103A9C0004DA03F07F03437302F06AFB0D4D2A46F0
:103AAC0052F8184FAB68944200D004B9EC688B42C2
:103ABC0007D05A7BD20604D1DA897F2A01D9A269B0
:103ACC002AB1A34202D0204600F01AFB23466B61B8
:103ADC0038BD00BF5C060020B3F1FF3F08BFB2F158
:103AEC00FF3F03D00249183000F0ACBB704700BF59
:103AFC005562000070B590F90D200146002A437BF9
:103B0C0004DA03F07F03437302F032FB1C4C4B7B53
:103B1C00224663F07F034B7352F8183FE0699342DF
:103B2C0007D1C1E900200160E16111E09842F8D0B1
:103B3C001B68002BF5D091F90E5093F90E60B5422D
:103B4C00F4D0AE42F2DD5868C1E900300160596032
:103B5C00A569A368954200D005B9E5688B4207D0EA
:103B6C005A7BD20604D1DA897F2A01D9AA692AB1F3
:103B7C00AB4202D0284600F0C3FA2B46636170BDFD
:103B8C005C060020F8B5DDE906670D4B0C4698681D
:103B9C0011460C4A1060EFF31182202282F3128836
:103BAC00BFF36F8F9D68284602F0F4FA2846324620
:103BBC003B46FFF791FF2046BDE8F840FFF706BFF4
:103BCC005C06002084060020F8B50446EFF311874C
:103BDC00202383F31288BFF36F8F437B49B203F02A
:103BEC001F02002A0CBF0126002639D103F07F03E7
:103BFC002D4D437302F0BCFA2A46437B817363F06C
:103C0C007F03437352F8183F934227D1E869C4E904
:103C1C0000200460EC610FE09842F8D01B68002B88
:103C2C00F5D093F90EC06145F6D08C45F4DD59689A
:103C3C00C4E900310C605C60AC69944200D004B9FA
:103C4C00EC68AB689C4202D0204600F059FA6C61DB
:103C5C0087F31188BFF36F8F3046F8BDE869DEE754
:103C6C009B071ED5856802F083FA81732B689D42F1
:103C7C0009D16B68C4E900531C606C60E8E76A68A2
:103C8C009342F6D01B68002BF3D093F90E2091428F
:103C9C00F5D08A42F3DD5A68C4E9003214605C60E6
:103CAC00D6E78173D4E700BF5C06002049B9EFF377
:103CBC00058030B9054B5A699B689A4201D0FFF7D1
:103CCC0085BE81F31188BFF36F8F70475C060020AF
:103CDC00034648B9EFF3058232B9064A5169926836
:103CEC00914201D0FFF772BE83F31188BFF36F8F3F
:103CFC00704700BF5C060020EFF31181202383F393
:103D0C001288BFF36F8F054B9A68D37B013BD3733B
:103D1C0081F31188BFF36F8F704700BF5C060020E2
:103D2C0070B5EFF31186202383F31288BFF36F8FE6
:103D3C00144DAB68DA7B0132DA732A4652F8184F0D
:103D4C00944200D004B9EC685A7BD20604D1DA89CB
:103D5C007F2A01D9A2692AB1A34202D0204600F0E1
:103D6C00CFF923466B6186F31188BFF36F8FEFF3A6
:103D7C001180202383F31288BFF36F8FBDE870404E
:103D8C00FFF7A6BF5C060020024B03F11802C3E943
:103D9C00062270475C06002070B5EFF311862023D5
:103DAC0083F31288BFF36F8F1B4CA168E0690B681B
:103DBC00814214BF1A46002249680B605960A368FF
:103DCC00E1692AB9154AC3E900210B60E3610CE0F3
:103DDC0093F90E0092F90E50A84218D0854216DDC8
:103DEC005168C3E900210B605360A5690B4B9D42E0
:103DFC0000D005B9E568A3689D4202D0284600F0C2
:103E0C007FF965613046BDE87040FFF7DFBD8A423F
:103E1C00D8D01268D5E700BF5C06002074060020DD
:103E2C00F8B550EA010306460C4603D1FFF7B4FF80
:103E3C000020F8BDEFF31187202383F31288BFF322
:103E4C006F8F124D124BA8681860FFF71BFEA86805
:103E5C00234632460F49183000F0F4F9AA6804469C
:103E6C00537B384643F004035373FFF7AFFDAB6845
:103E7C00D3E90A23B3F1004F08BF002AD8D102F0CE
:103E8C006BFA201A20EAE070D3E700BF5C06002032
:103E9C00840600205562000038B504460D46FFF735
:103EAC00BFFFB5F1FF3F08BFB4F1FF3F024620460C
:103EBC0018D000234FF47A7447F611201946C2FB30
:103ECC00040147F61222904271F100020BD3084B09
:103EDC00834243F608538B4107D347F61222002343
:103EEC00FCF7C6FA38BD1846FCE76FF00040F9E75E
:103EFC00ED85FFFF38B50446EFF31185202383F3DE
:103F0C001288BFF36F8F437B5B070FD5183002F01D
:103F1C00FBF9637B204623F004036373FFF770FD0A
:103F2C002946BDE838400448FFF7C0BE85F3118828
:103F3C00BFF36F8F38BD00BF940C0020014B986805
:103F4C00704700BF5C0600202DE9F8430446077B50
:103F5C00EFF31185202383F31288BFF36F8F437B1C
:103F6C00190705D585F31188BFF36F8FBDE8F8836A
:103F7C00D90943F008025AD14273A36813B1204601
:103F8C0002F0FEF804F1180002F0BEF9A66D04F17F
:103F9C005808B04511D04FF0000976B1304602F008
:103FAC00EFF806F1180002F0AFF93046C6F8889029
:103FBC00FFF726FDA66DB045EFD1DFF8B880D8F835
:103FCC0008309C423BD1EFF30589B9F1000918BFC9
:103FDC004FF00109D8F81860274A964200D00EB964
:103FEC00D8F80C60B34202D0304600F089F8C8F81B
:103FFC001460B9F1000F02D02048FFF7DBFCD8F8B1
:10400C0008309C4231D1EFF3058373BB227BD2077E
:10401C0018D42846FFF7DAFCFB07A7D5002383F357
:10402C001188BFF36F8F0423184602DF9EE703F05D
:10403C007F0343F00803437302F09AF89DE74FF0B7
:10404C000009C7E785F31188BFF36F8F83F31188DD
:10405C00BFF36F8F0423184602DFEFF31180202388
:10406C0083F31288BFF36F8FD4E785F31188BFF306
:10407C006F8FD1E75C06002074060020E802002058
:10408C00D3B5DDE90667089CCDE90067FFF77AFD3B
:10409C001CB1034B9B681B69236002B0D0BD00BFF1
:1040AC005C0600200122044BC01A044BC01058437C
:1040BC00034B1A54704700BF78030020ABAAAAAA7E
:1040CC00940C0020C3897F2B12D80A4B1B6863B158
:1040DC00094B90F90E201B689A4209DB437BDB06E7
:1040EC0006D1064BC31A18BF012303F00100704719
:1040FC000023FAE7FC00002088060020C8010020FD
:10410C0070B50E4B0E4C1E7C054606EB460304EBBD
:10411C00C304204602F0F8F800220A4B28469A55B0
:10412C00FFF7D0FF48B1084B2046BDE870401A6835
:10413C000649013AD31700F085B870BD5C06002023
:10414C0078030020940C0020FC000020B1400000FB
:10415C0038B5EFF31185202383F31288BFF36F8FEB
:10416C00104B114A9C681068A04206D1FFF7C8FF9B
:10417C0085F31188BFF36F8F38BD00211B7C116054
:10418C000A4AD35C002BF3D02046FFF79BFF002894
:10419C00EED0637BDB0602D12046FFF7ABFC20465A
:1041AC00E4E700BF5C06002084060020940C00208D
:1041BC00074808B5074A0849121A01F07DFFBDE807
:1041CC0008400648064A0749121A01F075BF00BF9D
:1041DC0040000020B801002088880000400000202A
:1041EC004000002088880000024B1868984208BFE5
:1041FC000020704700010020034B1B680BB9FDF732
:10420C00CDBE0020704700BF8C06002030B570B1C9
:10421C000B4B5B6898420AD0036843B1D3E9042185
:10422C00D0E90445121941EB0501C3E90421D0E999
:10423C00003213605A600023C0E9003330BD00BF68
:10424C0000010020B3F1FF3F08BFB2F1FF3F2DE9A1
:10425C00F84F0446994615461F467BD08160EFF314
:10426C001188202383F31288BFF36F8F013279F109
:10427C00FF33DFF8E8A020DBFFF7BEFFDAE9002709
:10428C00013549F100092D1849EBE07306464FF052
:10429C000109C4E90453AD1843EB0707FFF7A4FF6A
:1042AC000346DFF8BCE0DEF804A0EBB9C4E900EA91
:1042BC00CAF80040CEF8044028E06FF00103DAE9B8
:1042CC0000125B1A4FF0FF3161EB02025B1B62EBD9
:1042DC000902012B72F10001BCBF012300224FF037
:1042EC000009C0E90432D9E7D3E9041CD4E904205D
:1042FC008A4270EB0C0B24DA891A5A686CEB0000BA
:10430C00C3E90410C4E9003214605C60FFF76CFF71
:10431C0084420ED1134B1B685BB9B9F1000F02D16B
:10432C00FFF76AFF0646304601F0D7FF0021FDF784
:10433C0045FE88F31188BFF36F8F28463946BDE8D8
:10434C00F88F521A60EB0C009A45C4E90420ADD0EA
:10435C001B68AAE700252F46EFE700BF900300205B
:10436C00000100208C0600202DE9F047EFF31185A9
:10437C00202383F31288BFF36F8FDFF8A090002601
:10438C00C9F800000027FFF72FFFDFF89480D9F859
:10439C000030D8E900ECD91750B1D0E90442A3425F
:1043AC0071EB020A1BDAE41A62EB0102C0E9044267
:1043BC00002413EB0E034CEB01012046C8E900313D
:1043CC00C9F8004001F089FF2146FDF7F7FD85F3A0
:1043DC001188BFF36F8FBDE8F047FFF7B9BE14EB40
:1043EC000E024CEBE473C0E90467C8E90023FFF745
:1043FC000DFF85F31188BFF36F8F83689847EFF338
:10440C001185202383F31288BFF36F8FD9F8003006
:10441C001B1BC9F80030FFF7E7FEB8E78C0600203D
:10442C009003002010B5EFF31184202383F312883E
:10443C00BFF36F8FFFF7E0FE0346054AD2E9000198
:10444C00181841EBE37184F31188BFF36F8F10BD23
:10445C009003002007B5074B4FF480620093064988
:10446C004FF0FF330548FFF7F9F9002003B05DF872
:10447C0004FB00BF60740000D819002098030020D2
:10448C00F8B50D4E0D4C0E4D33680E4898476778B5
:10449C002B680C48984733680B489847022F08D173
:1044AC002478E31F5C425C412B6807489847204600
:1044BC00F8BD0024F8E700BF2C0100209006002076
:1044CC00280100208C0100207801002070B51D4EC1
:1044DC001D4C33681D4898472378590744BF23F077
:1044EC000403237023789A0705D500F0C1F82378CC
:1044FC0023F002032370164D14482B689847336839
:10450C0014489847637813B1134801F056FF002301
:10451C0004211148637000F0CBF82B680D489847C4
:10452C0033680A4898472378DB0705D501F042FF2A
:10453C00237823F0010323702B680448BDE87040F6
:10454C00184700BF2C0100209006002078010020A5
:10455C00280100208C010020940600202DE9F04158
:10456C00FFF78EFF18B100242046BDE8F081364FCE
:10457C0036483B689847044620B16FF08F04FFF72C
:10458C00A5FFF1E7324D2B78D80706D401F010FFC8
:10459C0004462B7843F001032B702E4E2B483368C6
:1045AC00984710B1002CE8D0E9E7002CE7D13B6824
:1045BC002648984704460028DFD12B78990706D463
:1045CC0000F04EF804462B7843F002032B7033684E
:1045DC001E4898470028E5D1002CD0D13B681B48D9
:1045EC0098470028C9D13368184895F80080984737
:1045FC000028C2D13B681848984704460028BCD113
:10460C006B7843B918F0010F05D0144801F0D3FEB4
:10461C00022304466B7033680F4898470028C1D1B9
:10462C00002CACD13B68094898470028A5D12B78C1
:10463C0006485A075CBF43F004032B703368984755
:10464C00002890D099E700BF2C01002078010020B1
:10465C0090060020280100208C01002094060020E8
:10466C000122024B002083F8802570479806002019
:10467C002DE9F0410A4C002526464FF0010803278E
:10468C002046C4F820802777013501F074FE202DD8
:10469C0004F12C04F4D1002386F88035BDE8F081B8
:1046AC0098060020014B1B68184700BF080100202A
:1046BC0010B50A46044619B1024B00211B689847F5
:1046CC0010BD00BF0C01002010B50C4C206802F08E
:1046DC0018F80B4A1368591C11604BB9094A482049
:1046EC00D2F8003443F00703C2F80034FCF72EFC78
:1046FC002068BDE8104002F00AB800BF1401002089
:10470C001C0C00200080045038B5164D286801F0B0
:10471C00F8FF154B1C68013C1C60ECB94820FCF7F9
:10472C0023FC0722114BC3F80823D3F8002422F0F2
:10473C000702C3F80024C3F80041D3F80021C3F8E2
:10474C000441D3F804214FF48072C3F80841D3F824
:10475C000831074BC3F888212868BDE8384001F0C0
:10476C00D6BF00BF140100201C0C00200080045098
:10477C0000E100E070B5114D114E2B68B3421BD017
:10478C00FFF7A2FF00F08CFA0E4A0F4B0F4952F8BC
:10479C00040B43F8040B8B42F9D100F0BFFA40B183
:1047AC0001F018FE0446FFF7AFFF04B92E60204657
:1047BC0070BD00F0C1F9F5E70024F8E71001002006
:1047CC00117365006874000000C080511CD38051C7
:1047DC000022074BC3F81021C3F80C21C3F80021A9
:1047EC00C3F80421C3F80821C3F81421704700BF93
:1047FC000050045008B5FFF7EBFF01230360104B8A
:10480C000A6832B9D3F80C211AB9D3F80821002A56
:10481C00F6D00B687BB90B4B99420ED0A3F5847381
:10482C00D3F80831002B0CBF4FF0FF306FF00200B3
:10483C00FFF7CEFF08BD0020FAE74FF0FF30F7E797
:10484C00005004500851045038B505460C4691B13F
:10485C000021012001F0F9FB08480949C0F8005576
:10486C00C0F80445FFF7C6FF00210446084601F0D6
:10487C00ECFB204638BD6FF00104FAE70050045001
:10488C000051045010B504460021012001F0DDFB5D
:10489C00064B0749C3F800450648FFF7ABFF00215C
:1048AC000446084601F0D1FB204610BD00500450D0
:1048BC00085104500850045038B50C4659B1074DF6
:1048CC000749C5F800050748FFF794FF10B9D5F85C
:1048DC000835236038BD6FF00100FBE70050045031
:1048EC00105104500C5004502DE9F04F89B006467D
:1048FC000F4690461D4601F025FE044678B97369B3
:10490C000090C3F3013262F305148DF8004014F0EB
:10491C00300408D1B168890710D06FF086042046A6
:10492C0009B0BDE8F08F102C08D1BDF8023023F48B
:10493C00F87343F4A873ADF802304EE0DBB2F82BF9
:10494C0002D06FF08504EAE700234FF0010B9E467E
:10495C0019461846D6F808C0DFF8CC9159F804ABC4
:10496C001CEA0A0F08D00BFA00F343EA0E0303F01B
:10497C007F0E012341EA0A0101300728EED12BB149
:10498C009DF803306EF347038DF803303CEA0101C8
:10499C00D7D17388FF2B35D005D8802B34D0C02BC2
:1049AC00CFD1022303E0B3F5807FCAD104239DF855
:1049BC00021063F306118DF8021014B91CF0030FEA
:1049CC00ABD13379022B2BD020D8012BA5D1BDF83C
:1049DC00021063F3C811ADF80210012A6FD0032A3C
:1049EC0023D0002A99D13388B3F5105FA9D1182DA3
:1049FC006DD0202D70D0102D8FD1DFF830A1012576
:104A0C001F261AE00323D2E70123D0E7032B01D0A2
:104A1C00FF2B82D10221BDF8023061F3C8138AE763
:104A2C00BDF8023043F4C07385E7412D3DD1042518
:104A3C004F26DFF8FCA008F101080024381901F01A
:104A4C0055FD00286CD00134AC42F7D11F2E07D095
:104A5C002946384601F05EFD044600287FF45FAF1E
:104A6C00009B4FF0FF39079300239B46CDF818A00D
:104A7C00BDF802204344C2F3C112059201AC03F10C
:104A8C00100C224618685968083303C26345144653
:104A9C00F7D101A907EB0B00FFF7D6FE044630B3A4
:104AAC0001F050FD6FF0920439E7182D19D0202D2C
:104ABC001AD0102D7FF431AFDFF874A09FE7302DA2
:104ACC007FF42BAF03253F26DFF868A0B5E7DFF8AE
:104ADC005CA002252726B0E7DFF850A002252F2680
:104AEC00ABE7DFF84CA0F4E7DFF844A0F6E71C21B5
:104AFC0001A80BF1010B01F0EDFCAB4506D00AEB64
:104B0C000B12CDE906294FEA0B13B1E71F2E3FF428
:104B1C0006AFFA20FFF7B6FE00283FF400AFC1E75E
:104B2C006FF08A04FBE600BF8487000040008151CF
:104B3C00000000201084045010B590B01C220021FD
:104B4C0001A801F06FFEF82001F0D0FC08B3202280
:104B5C0000200DEB020100F089F90446F8B901A818
:104B6C004FF4807101F0CCFC0E4B0F4904930F4BAA
:104B7C00CDE901130E4BF821069320230DEB030214
:104B8C00FFF7B2FE202104460DEB010001F0A2FC60
:104B9C0005E0F92001F0AAFC0028D8D104462046F3
:104BAC0010B010BD0010C00400240001014B4E8059
:104BBC00F800FF7F10B50446FFF786FD104B186810
:104BCC0001F09FFD0CB101232370BFF35F8F4FF0F9
:104BDC00A3430022DA61BFF35F8FBFF35F8F4FF007
:104BEC00FF321A63BFF35F8FBFF35F8F3422DA613A
:104BFC00BFF35F8F0122034BC3F8042310BD00BF2A
:104C0C00180100200080045010B5044638B9FFF795
:104C1C007BFDBDE81040074B186801F078BD0378A8
:104C2C003BB1FFF771FD034B186801F070FD0023D9
:104C3C00237010BD1801002038B5164CD4F8005163
:104C4C00C5B1BFF35F8F4FF0A343996ABFF35F8F7A
:104C5C00BFF35F8F4FF0FF321A63BFF35F8F0023F8
:104C6C00C4F80031D4F800310B4B1868BDE838405B
:104C7C0001F060BDD4F8083153B100F06DF801F0CB
:104C8C0084FCC4F80851D4F808310121034BECE73B
:104C9C0038BD00BF00800450200100201C01002002
:104CAC0008B5074B186801F034FD064B186801F085
:104CBC0030FDBDE80840002248201146FCF776B9CB
:104CCC00200100201C01002038B5094B1C7864B170
:104CDC00084B4FF0FF311D68284601F01CFD4FF0CA
:104CEC00FF310446284601F023FD204638BD00BFA5
:104CFC00930C00202001002010B5064C236D3BB90D
:104D0C00214651F8503B986901F04CFC0123236576
:104D1C00014810BD200C0020700C002038B5002478
:104D2C000B4D0C4BEC662B6003F5C0436B60FFF72F
:104D3C00E3FF50B16B6D2046B3F5007FCCBF4FF451
:104D4C0080634FF40073AB6038BD0E20FCE700BFEE
:104D5C00200C00200020805100487047200C0020BF
:104D6C004FF480732DE9F04796B0804603A8039367
:104D7C00002401F042FC4FF010091E4E0DF12F05DE
:104D8C0025F01F0506F1200A012210211A4801F016
:104D9C008CFB2B1900935246102320211548CDF87B
:104DAC00049000F0EBF80746F8B9D6E90C32103451
:104DBC00013342F10002302CC6E90C32E4D1B8F1D7
:104DCC00000F04D022464146284601F061FB2E46D6
:104DDC00084C0FCE0FC496E80F00203584E80F0066
:104DEC0095E80F00103484E80F00384616B0BDE883
:104DFC00F08700BF4804002068040020F0B5184D6F
:104E0C00184FAB6B8DB0BB4228D0174E306801F0F9
:104E1C0078FC402300221946284601F050FB6846D6
:104E2C0001F0F8FB044678B96846FFF799FF044691
:104E3C0090B9302302461946684601F040FB012226
:104E4C000023C5E90C23AF63306801F060FC2046F9
:104E5C0001F0C0FA0DB0F0BD0E24F5E70020F9E723
:104E6C0048040020B4A5B4A5240100202DE9F04F7E
:104E7C0099B00DF1570802F10F0982460E461446FF
:104E8C0028F01F084FEA191922B100296CD0B2F58D
:104E9C00803F69D8364F374D386801F032FCD5E980
:104EAC000C3213430BD15046FFF7A8FF834630B1A9
:104EBC00386801F02CFC584619B0BDE8F08FD5E9E4
:104ECC000C2319EB020243F10003B3F5803F13D31B
:104EDC0002A801F09FFBE8B902A8FFF741FF834647
:104EEC000028E5D130230246194602A801F0E7FA62
:104EFC0000220023C5E90C234FF4807302A802930F
:104F0C0001F07BFBDFF870A03CB92046FFF728FFCF
:104F1C008346CDE76FF0920BCAE7102C4FF00102DD
:104F2C004FF010015046A14628BF4FF0100901F078
:104F3C00BCFA102352462021CDE900830D4800F025
:104F4C001DF883460028B3D14A463046414601F04D
:104F5C005CFCD5E90C32013342F10002C5E90C329C
:104F6C00A4EB09044E44CFE76FF0860BA3E700BF18
:104F7C0024010020480400206804002010B543F0F0
:104F8C00005392B0109321234FF480740E9201229F
:104F9C001193149B01940293159B01AC41F00051A9
:104FAC0006940C91112440F6110143F00053CDE905
:104FBC0003232023DFF864C00A90CDE908C40D91C7
:104FCC0000200EA90AAC07940B910F920593FFF7E2
:104FDC00F1FDBFF35F8F4FF0A34306AA1A60BFF336
:104FEC005F8FBFF35F8F02AA1A61BFF35F8FBFF3AE
:104FFC005F8F03225A63BFF35F8FBFF35F8F9A6398
:10500C00BFF35F8F01F044FB431C0446FAD0002031
:10501C00FFF7FAFD204612B010BD00BF04000020BF
:10502C00BFF35F8F094A1368BFF35F8F43F480713E
:10503C00BFF35F8F1160BFF35F8F23F48073BFF3F7
:10504C005F8F1360BFF35F8F704700BF00108051FC
:10505C0008B5FFF7E5FFBFF35F8F064A1368BFF390
:10506C005F8F43F00103BFF35F8F1360BFF35F8F5C
:10507C0008BD00BF0010805170B50026C0E9006665
:10508C0005460C46FFF720FB01232B70FFF7C8FFEA
:10509C00BFF35F8F204BDB68BFF35F8F9B08013B37
:1050AC00ACB3226842B19A4205D9FFF72DFB6FF0E1
:1050BC003F002E7070BD1346D4E90115E06800293D
:1050CC0008BF4FF40071002808BFF1202469BFF31A
:1050DC005F8F114A9360BFF35F8FBFF35F8F1564CF
:1050EC00BFF35F8FBFF35F8F5064BFF35F8FBFF36E
:1050FC005F8F5163BFF35F8F44F4802444F001044D
:10510C00BFF35F8F1460BFF35F8F0020D2E74FF4C3
:10511C000071F1202546DAE70010805170B5037854
:10512C000D461446002B53D0BFF35F8F2D4A136BE3
:10513C00BFF35F8F5908C3F34203052B4BD011F01B
:10514C00060F02D14FF0FF3070BD4368D3B9BFF3E7
:10515C005F8F5368BFF35F8F032BF3D9224B234927
:10516C00BFF35F8FD2F88060BFF35F8FBFF35F8FA9
:10517C0043F8046BBFF35F8F8B42F1D1FFF768FFED
:10518C0001234360BFF35F8F164B9A68BFF35F8FA9
:10519C000132B4EB021F21D8BFF35F8F5A68BFF303
:1051AC005F8FB4EB820FCDD884B1BFF35F8FD3F890
:1051BC008020BFF35F8F291D05F8012B8D424FEA2C
:1051CC00122204F1FF34EFD0002CF5D10020BBE704
:1051DC006FF02000B8E76FF05100B5E76FF03F00BB
:1051EC00B2E700BF00108051101080512010805188
:1051FC002DE9F743002600F10C080096EFF3118916
:10520C00202484F31288BFF36F8F8568694005EA08
:10521C0002070A4055400C496A468560019501F029
:10522C003AF8009C44B12046C4F8886065660021B9
:10523C00246E00F0E6FFF5E740464946FEF736FDE2
:10524C00384603B0BDE8F083C76700002DE9F04F86
:10525C0043688DB015468046029383789A0740F1D7
:10526C000D8100240E78002E00F00A81252E0BD023
:10527C004B1C0393013441463046029B984700284F
:10528C00C0F2F6800399EDE74E788B1C252E039324
:10529C00F0D00027B946BB46BBF11F0F38D8A6F19A
:1052AC002003102B0AD8DFE803F02A09093009097A
:1052BC00092109090928092D09091F00A6F1300344
:1052CC00092B33D92A2E37D11BF0400F55F8043B4C
:1052DC0040F08280002BA7BF4BF0200B9946C3F106
:1052EC0000094BF0280B01E04BF0010B039B13F86A
:1052FC00016B0393002ECFD130E04BF0020B4BF03F
:10530C00040BF3E74BF0080BF0E74BF0100BEDE759
:10531C00BBF17F0F19D8A6F13003092BD2D81BF0A3
:10532C00400F03D00A2101FB0737DFE70A214BF0BE
:10533C00200B01FB0939D9E72E2E06D11BF0400FAB
:10534C0040F09E804BF0400BD0E76C2E31D02BD828
:10535C00682E36D06A2E3CD04C2E3AD0002F46F018
:10536C002003B8BF2BF04002A3F16501BCBF00279E
:10537C001FFA82FB022901D9612B2FD10735072790
:10538C00DFF8ACA225F0070508351BF0080F66D036
:10539C000AEB070B56465E4563D1A4EB0A0AA9EB50
:1053AC00070906EB0A026FE1742E9FD07A2E9DD06E
:1053BC00D4E71BF0800F18BF4BF4007B4BF0800B35
:1053CC0094E71BF4807F18BF4BF4007B4BF4807B7D
:1053DC008CE74BF4207B89E71F4687E7A6F1630136
:1053EC00122900F2F080DFE811F013004F00EE00FC
:1053FC00EE00EE00EE004F00EE00EE00EE00EE00D0
:10540C00EE00FE00E900EE00EE001B00EE00AF0027
:10541C0055F8043B01270DF1180A8DF81830B4E744
:10542C0055F804AB834BBAF1000F08BF9A461BF03A
:10543C00400F504614BF39464FF0FF3101F0FAF9D6
:10544C000746A2E741462020029B984700280FDB25
:10545C00013EB742F6D34C44B146A41B98E74E46E6
:10546C00F7E7414616F8010B029B9847002892DAA1
:10547C0098F8023043F0040388F802304FF0FF3400
:10548C0020460DB0BDE8F08F1BF0800F34D01BF41C
:10549C00007F2CD0073525F00705AA4669685AF815
:1054AC00080B2BF010050029ADB237DA404245F459
:1054BC00806561EB41010DF1180B0A235A4601F08E
:1054CC00C5F9A0EB0B0301936B0662D5019B25F08C
:1054DC0001019F4289B240F3A180002E00F0998017
:1054EC0015F0100240F09C80BB460D4623E0AA4606
:1054FC005AF8040BC117D4E7AA461BF4807F5AF85C
:10550C00041B01D10846F5E71BF4007F19BF48B214
:10551C0041F3C01108B241F3C031C2E750EA0103B4
:10552C00C9D11BF0400FC6D0002FC4D12BF01102F3
:10553C00BB46019795B240F2064115EA01021CBF29
:10554C000BF1010B00222CE02BF010020A231FFAA6
:10555C0082FB1BF0800C49D01BF4007115BF073582
:10556C00AA4625F007055AF8040B1EBFAA4669681F
:10557C005AF8080B50EA010545D12BF016051BF023
:10558C00400FADB242D0002F40D12BF01702019743
:10559C0095B215F0100248D0019B002E42D103F1B8
:1055AC00010B29075AD4EB0706D5D9456FDDA9EBBA
:1055BC000B030199CB465F185B4649E04BF0100B8F
:1055CC0010237826C5E7782B04D1C6F1780343F075
:1055DC001003BEE741462520029B98470028FFF6A2
:1055EC0047AF023447E608230026B2E7AA461BF46D
:1055FC0080715AF8040BBDD01BF400711ABFC0B2F5
:10560C00614680B2B6E72BF0060295B20DF1180B8D
:10561C0054E725F01105BB46ADB28CE70D46B8E753
:10562C003B460D4603F1020BBBE7DDF804B082E705
:10563C007D88000076880000CDE9043241462020A8
:10564C00029B98470028FFF613AF049B059A013381
:10565C009945F1DCA4EB0B019B46CC180AB34146EF
:10566C003020029B98470028FFF602AF8EB9013418
:10567C002744391B019B994224DC1D4655BB019ADA
:10568C00A9EB0B09554622441446914433E0019F83
:10569C0092E7023441463046029B98470028E7DAED
:1056AC00E6E640F206410D42E2D015F0020F04F19D
:1056BC000104414614BF2B20202015F4806F18BF25
:1056CC002D20E9E741463020029B01349847002801
:1056DC00CFDACDE606AB013D4146585D029B9847BB
:1056EC000028CBDAC4E641462020029B01349847BF
:1056FC000028FFF6BDAEA9EB0403002BF3DCC1E5DB
:10570C00704703460A46F0B41979DB8800681343E6
:10571C00DC028768066906D513F4402F03D0DA073C
:10572C0048BF83F44023012534688D4023F4801254
:10573C00DB074CBF2C43AC4334603B68F0BC1847D0
:10574C00836800EBC101B3F5004F2CBF51F8220068
:10575C0031F81200704700EBC1018068B0F5004FC2
:10576C002CBF41F8223021F812307047012208B5C5
:10577C00FFF7E6FFD04008BD836800EBC101B3F52D
:10578C00004F08D34B681AB143F001034B607047CC
:10579C0023F00103FAE74B881AB143F001034B8065
:1057AC00704723F00103FAE753000122FFF7D3BF40
:1057BC00B0F5004F34BF04230823481C0833A0EB7A
:1057CC00D300B0FA80F0C0F11F0070472DE9F04112
:1057DC000D4686680446FFF7C9FFB6F5004F014633
:1057EC0001D3012832D03046FFF7E2FF04EB8001F1
:1057FC000E6996B90122E36882401343E3600222EA
:10580C000D612B4629462046FFF7A5FF03222946AA
:10581C002046BDE8F041FFF79EBF022231462046EC
:10582C00FFF78EFF0746034629462046FFF793FFF6
:10583C000322334629462046FFF78DFF39462B4677
:10584C002046FFF788FF02223146E1E7BDE8F081F0
:10585C00B2F5802F2CBF082304232DE9F04100263C
:10586C00D21A8C18CD1D25F0070524F00704641BF3
:10587C00E408056021462046AC60EE60FFF798FF17
:10588C00421D9200013002F107074FEAD70731465B
:10589C00A2F1100205F11000B8BF324600F0C2FFB1
:1058AC003A4631462846FFF77FFF334632463146AB
:1058BC002846FFF750FFA4EB070828463146012283
:1058CC00FFF75AFF42463946FFF76EFF3B4632461A
:1058DC0039462846FFF73FFF21462846FFF764FF6D
:1058EC004346324621462846FFF735FF21462846D7
:1058FC000122FFF741FF3946BDE8F041FFF766BFD3
:10590C00002070470FB407B504A951F8040B01919E
:10591C00FAF784FF03B05DF804EB04B07047038B17
:10592C0013F0070305D10368002B0CBF00200320E4
:10593C007047022B05D1408BB0FA80F040098000F3
:10594C007047012B05D10368002B0CBF00200520EC
:10595C0070470020704710B50C4600B111B96FF0BC
:10596C00150010BD081D00F093F80028F9D1A368AC
:10597C00032BF6D9F3E72DE9F0410D4607461946FE
:10598C00281D90461E4600F094F8044638B1334664
:10599C00424629463846A446BDE8F0416047BDE87A
:1059AC00F08110B4EFF31182202484F31288BFF33A
:1059BC006F8F416110BC0121FAF762BF38B50C46FC
:1059CC00054658B151B10B6843B14B6833B11C2239
:1059DC00002100F027FF00202C6138BD6FF015006E
:1059EC00FBE770B505460E46FFF7B5FF041E14DB4A
:1059FC00EFF31182202383F31288BFF36F8F4FF6DE
:105A0C00FF716B8B2C8B8B4204F0070407D182F354
:105A1C001188BFF36F8F6FF00A04204670BD022C03
:105A2C000CD101336B8382F31188BFF36F8F00238A
:105A3C00224631462846FFF79EFFEEE7062C14D887
:105A4C00DFE804F004131313041A0400002333607A
:105A5C006B683BB9C5E90066ACB902212846FAF778
:105A6C000FFFDAE71E606E60F6E782F31188BFF372
:105A7C006F8F6FF00404D0E782F31188BFF36F8F40
:105A8C006FF08504C9E782F31188BFF36F8FC4E709
:105A9C00034658B1426802F00302012A03D0032ADC
:105AAC0004D1026812B10020986070476FF01500A5
:105ABC0070474268034602F00302032A4FF00002CB
:105ACC00816014BF104600685A6070477047012807
:105ADC0001D1EFF30583FDF75FBB01460068FFF7CB
:105AEC00F6BF08B5FAF7EEFFBDE80840FBF70EB8B5
:105AFC0000210120FFF7EBBF036F83F30B88704786
:105B0C0061B662B680F31188BFF36F8F704772B6BF
:105B1C00002383F31188BFF36F8FBFF34F8F30BF18
:105B2C0062B6BFF36F8F704772B6002383F3118890
:105B3C00BFF36F8FBFF34F8F20BF80F31188BFF37C
:105B4C006F8F62B6704740E800F313F4803FD8B211
:105B5C0008BF6FF01500704730B50C684B6885B006
:105B6C000A894D890094013B24F01F04234402F060
:105B7C001F0242EA451223F01F0369468DF80820E4
:105B8C000393FBF7E5FA05B030BD08B5FBF7A0FCB5
:105B9C00002008BD0C220369C9B201FB0233186C4A
:105BAC0000F00700704770B5C9B20369EFF31185B7
:105BBC00202484F31288BFF36F8F0C2606FB01346C
:105BCC00246C14F0C00408D0A24206D085F31188CE
:105BDC00BFF36F8F4FF0FF3070BD012206FB013316
:105BEC001A6485F31188BFF36F8F436803EBC1030D
:105BFC005B6898470020EFE78022FFF7D4BFF8B529
:105C0C00069F0469C9B2EFF31186202585F312882B
:105C1C00BFF36F8F0C2505FB0144256C05F0070CB9
:105C2C00BCF1010F0CD1276486F31188BFF36F8F81
:105C3C00C4E90E23436853F8313098470020F8BD6F
:105C4C0005F0C005AF4286F31188BFF36F8F0CBF10
:105C5C006FF077004FF0FF30F1E713B5802400941C
:105C6C00FFF7CDFF02B010BD10B41C240069CBB2FD
:105C7C0003FB0400002110BC10470020FCF75CBBA8
:105C8C00002000F019B91046FDF786BC022804D09C
:105C9C00042804D10020FBF749BD0120FBE7704725
:105CAC00436800205B68DB680B607047436802EA5E
:105CBC0001005B6821EA020158600020996070477E
:105CCC00436800205B6859607047436800205B683C
:105CDC009960704743685A68136821EA03000B40C7
:105CEC00506000209360704710B503695868F8B194
:105CFC00884219D19C680868A142586000D198600C
:105D0C00002008602AB15A680A609A68596002B982
:105D1C009960002010E0814206D1086820609868E4
:105D2C008142EDD19C60EBE7044600680028F2D17B
:105D3C00002AE8D16FF0150010BD30B54368136030
:105D4C00057A446804EBC504A34202D36FF001004A
:105D5C0030BD5C798C4201D00833F0E70020F7E7C6
:105D6C0043681B68D3F83031704743681B68D3F81D
:105D7C008004C3F88004704742681368D3F84C0160
:105D8C0050B10020926A12780A70C3F84C01D3F813
:105D9C004C2101229A6270474FF0FF30704713B5C7
:105DAC0001AA0446FFF7C9FF002805DB019B226806
:105DBC0019791868FBF776FF02B010BD37B50546A8
:105DCC0000220121C620FBF7F1F8C620FBF7BEF834
:105DDC006C680121E068FFF7E2FF6B681968636982
:105DEC00C1F82435E28BA38BA07E1343228C134382
:105DFC00628C1343627E9BB20243207E02431343A8
:105E0C00C1F86C3569680B68D3F8002242F4802223
:105E1C00C3F800220822C3F800254A6A0121C3F8FE
:105E2C003C270022C3F840271965D3F8301100290C
:105E3C00FBD0C3F800256B680021D868FFF7AFFFD3
:105E4C006D680021E8682C68FFF7A9FF0823C4F8E7
:105E5C00003595F82C3023B10021E86801AAFFF732
:105E6C006CFF2A7A52B9AB6AC4F804370123C4F820
:105E7C000837C4F84C21D4F84C21A362002003B09D
:105E8C0030BD07B56846FCF7BFFFDDE9000103B084
:105E9C005DF804FB08B5FEF761FB48B1002383F302
:105EAC001188BFF36F8F0423184602DF6FF00400D4
:105EBC0008BD004700F0CCB8FCF7A4B9F7B51646FE
:105ECC00DDE90847019001A81D46FCF7E9FA019BA2
